{
  "contractName": "PropertyRegistration",
  "abi": [
    {
      "inputs": [],
      "payable": false,
      "stateMutability": "nonpayable",
      "type": "constructor"
    },
    {
      "anonymous": false,
      "inputs": [
        {
          "indexed": false,
          "internalType": "string",
          "name": "message",
          "type": "string"
        }
      ],
      "name": "invalidEvent",
      "type": "event"
    },
    {
      "anonymous": false,
      "inputs": [
        {
          "indexed": false,
          "internalType": "string",
          "name": "transactionID",
          "type": "string"
        }
      ],
      "name": "properyRegisteredEvent",
      "type": "event"
    },
    {
      "anonymous": false,
      "inputs": [
        {
          "indexed": false,
          "internalType": "string",
          "name": "transactionID",
          "type": "string"
        }
      ],
      "name": "properyTransferredEvent",
      "type": "event"
    },
    {
      "anonymous": false,
      "inputs": [
        {
          "indexed": false,
          "internalType": "string",
          "name": "message",
          "type": "string"
        }
      ],
      "name": "successEvent",
      "type": "event"
    },
    {
      "constant": false,
      "inputs": [
        {
          "internalType": "uint256",
          "name": "_userID",
          "type": "uint256"
        },
        {
          "internalType": "string",
          "name": "_userName",
          "type": "string"
        },
        {
          "internalType": "string",
          "name": "_userPassword",
          "type": "string"
        }
      ],
      "name": "registerUser",
      "outputs": [],
      "payable": false,
      "stateMutability": "nonpayable",
      "type": "function"
    },
    {
      "constant": false,
      "inputs": [
        {
          "internalType": "uint256",
          "name": "_ownerID",
          "type": "uint256"
        },
        {
          "internalType": "string",
          "name": "_ownerName",
          "type": "string"
        },
        {
          "internalType": "string",
          "name": "_ownerPassword",
          "type": "string"
        },
        {
          "internalType": "uint256",
          "name": "_propertyID",
          "type": "uint256"
        },
        {
          "internalType": "string",
          "name": "_propertyType",
          "type": "string"
        },
        {
          "internalType": "string",
          "name": "_propertyDimensions",
          "type": "string"
        },
        {
          "internalType": "string",
          "name": "_propertyAddress",
          "type": "string"
        },
        {
          "internalType": "string",
          "name": "_time",
          "type": "string"
        }
      ],
      "name": "registerProperty",
      "outputs": [],
      "payable": false,
      "stateMutability": "nonpayable",
      "type": "function"
    },
    {
      "constant": false,
      "inputs": [
        {
          "internalType": "uint256",
          "name": "_propertyID",
          "type": "uint256"
        },
        {
          "internalType": "uint256",
          "name": "_sellerID",
          "type": "uint256"
        },
        {
          "internalType": "string",
          "name": "_sellerName",
          "type": "string"
        },
        {
          "internalType": "string",
          "name": "_sellerPassword",
          "type": "string"
        },
        {
          "internalType": "uint256",
          "name": "_buyerID",
          "type": "uint256"
        },
        {
          "internalType": "string",
          "name": "_buyerName",
          "type": "string"
        },
        {
          "internalType": "uint256",
          "name": "_amount",
          "type": "uint256"
        },
        {
          "internalType": "string",
          "name": "_time",
          "type": "string"
        }
      ],
      "name": "transferProperty",
      "outputs": [],
      "payable": false,
      "stateMutability": "nonpayable",
      "type": "function"
    },
    {
      "constant": true,
      "inputs": [
        {
          "internalType": "uint256",
          "name": "_propertyID",
          "type": "uint256"
        }
      ],
      "name": "getPropertyByID",
      "outputs": [
        {
          "internalType": "uint256",
          "name": "",
          "type": "uint256"
        },
        {
          "internalType": "string",
          "name": "",
          "type": "string"
        },
        {
          "internalType": "string",
          "name": "",
          "type": "string"
        },
        {
          "internalType": "string",
          "name": "",
          "type": "string"
        },
        {
          "internalType": "uint256",
          "name": "",
          "type": "uint256"
        },
        {
          "internalType": "string",
          "name": "",
          "type": "string"
        },
        {
          "internalType": "string",
          "name": "",
          "type": "string"
        },
        {
          "internalType": "uint256",
          "name": "",
          "type": "uint256"
        }
      ],
      "payable": false,
      "stateMutability": "view",
      "type": "function"
    },
    {
      "constant": true,
      "inputs": [
        {
          "internalType": "uint256",
          "name": "_propertyID",
          "type": "uint256"
        },
        {
          "internalType": "uint256",
          "name": "_index",
          "type": "uint256"
        }
      ],
      "name": "getPrevOwner",
      "outputs": [
        {
          "internalType": "uint256",
          "name": "",
          "type": "uint256"
        },
        {
          "internalType": "string",
          "name": "",
          "type": "string"
        }
      ],
      "payable": false,
      "stateMutability": "view",
      "type": "function"
    },
    {
      "constant": true,
      "inputs": [
        {
          "internalType": "uint256",
          "name": "v",
          "type": "uint256"
        }
      ],
      "name": "uint2str",
      "outputs": [
        {
          "internalType": "string",
          "name": "str",
          "type": "string"
        }
      ],
      "payable": false,
      "stateMutability": "pure",
      "type": "function"
    }
  ],
  "bytecode": "0x608060405234801561001057600080fd5b5033600260006101000a81548173ffffffffffffffffffffffffffffffffffffffff021916908373ffffffffffffffffffffffffffffffffffffffff1602179055506133da806100616000396000f3fe608060405234801561001057600080fd5b50600436106100625760003560e01c80633e1d89f614610067578063657d28bf1461042a578063900a12c7146106965780639486700b1461074e578063f76f950e146109f7578063ff934a3614610a9e575b600080fd5b610428600480360361010081101561007e57600080fd5b8101908080359060200190929190803590602001906401000000008111156100a557600080fd5b8201836020820111156100b757600080fd5b803590602001918460018302840111640100000000831117156100d957600080fd5b91908080601f016020809104026020016040519081016040528093929190818152602001838380828437600081840152601f19601f8201169050808301925050505050505091929192908035906020019064010000000081111561013c57600080fd5b82018360208201111561014e57600080fd5b8035906020019184600183028401116401000000008311171561017057600080fd5b91908080601f016020809104026020016040519081016040528093929190818152602001838380828437600081840152601f19601f82011690508083019250505050505050919291929080359060200190929190803590602001906401000000008111156101dd57600080fd5b8201836020820111156101ef57600080fd5b8035906020019184600183028401116401000000008311171561021157600080fd5b91908080601f016020809104026020016040519081016040528093929190818152602001838380828437600081840152601f19601f8201169050808301925050505050505091929192908035906020019064010000000081111561027457600080fd5b82018360208201111561028657600080fd5b803590602001918460018302840111640100000000831117156102a857600080fd5b91908080601f016020809104026020016040519081016040528093929190818152602001838380828437600081840152601f19601f8201169050808301925050505050505091929192908035906020019064010000000081111561030b57600080fd5b82018360208201111561031d57600080fd5b8035906020019184600183028401116401000000008311171561033f57600080fd5b91908080601f016020809104026020016040519081016040528093929190818152602001838380828437600081840152601f19601f820116905080830192505050505050509192919290803590602001906401000000008111156103a257600080fd5b8201836020820111156103b457600080fd5b803590602001918460018302840111640100000000831117156103d657600080fd5b91908080601f016020809104026020016040519081016040528093929190818152602001838380828437600081840152601f19601f820116905080830192505050505050509192919290505050610bfa565b005b6104566004803603602081101561044057600080fd5b8101908080359060200190929190505050611602565b60405180898152602001806020018060200180602001888152602001806020018060200187815260200186810386528d818151815260200191508051906020019080838360005b838110156104b857808201518184015260208101905061049d565b50505050905090810190601f1680156104e55780820380516001836020036101000a031916815260200191505b5086810385528c818151815260200191508051906020019080838360005b8381101561051e578082015181840152602081019050610503565b50505050905090810190601f16801561054b5780820380516001836020036101000a031916815260200191505b5086810384528b818151815260200191508051906020019080838360005b83811015610584578082015181840152602081019050610569565b50505050905090810190601f1680156105b15780820380516001836020036101000a031916815260200191505b50868103835289818151815260200191508051906020019080838360005b838110156105ea5780820151818401526020810190506105cf565b50505050905090810190601f1680156106175780820380516001836020036101000a031916815260200191505b50868103825288818151815260200191508051906020019080838360005b83811015610650578082015181840152602081019050610635565b50505050905090810190601f16801561067d5780820380516001836020036101000a031916815260200191505b509d505050505050505050505050505060405180910390f35b6106cc600480360360408110156106ac57600080fd5b810190808035906020019092919080359060200190929190505050611b83565b6040518083815260200180602001828103825283818151815260200191508051906020019080838360005b838110156107125780820151818401526020810190506106f7565b50505050905090810190601f16801561073f5780820380516001836020036101000a031916815260200191505b50935050505060405180910390f35b6109f5600480360361010081101561076557600080fd5b8101908080359060200190929190803590602001909291908035906020019064010000000081111561079657600080fd5b8201836020820111156107a857600080fd5b803590602001918460018302840111640100000000831117156107ca57600080fd5b91908080601f016020809104026020016040519081016040528093929190818152602001838380828437600081840152601f19601f8201169050808301925050505050505091929192908035906020019064010000000081111561082d57600080fd5b82018360208201111561083f57600080fd5b8035906020019184600183028401116401000000008311171561086157600080fd5b91908080601f016020809104026020016040519081016040528093929190818152602001838380828437600081840152601f19601f82011690508083019250505050505050919291929080359060200190929190803590602001906401000000008111156108ce57600080fd5b8201836020820111156108e057600080fd5b8035906020019184600183028401116401000000008311171561090257600080fd5b91908080601f016020809104026020016040519081016040528093929190818152602001838380828437600081840152601f19601f820116905080830192505050505050509192919290803590602001909291908035906020019064010000000081111561096f57600080fd5b82018360208201111561098157600080fd5b803590602001918460018302840111640100000000831117156109a357600080fd5b91908080601f016020809104026020016040519081016040528093929190818152602001838380828437600081840152601f19601f820116905080830192505050505050509192919290505050611d40565b005b610a2360048036036020811015610a0d57600080fd5b8101908080359060200190929190505050612a95565b6040518080602001828103825283818151815260200191508051906020019080838360005b83811015610a63578082015181840152602081019050610a48565b50505050905090810190601f168015610a905780820380516001836020036101000a031916815260200191505b509250505060405180910390f35b610bf860048036036060811015610ab457600080fd5b810190808035906020019092919080359060200190640100000000811115610adb57600080fd5b820183602082011115610aed57600080fd5b80359060200191846001830284011164010000000083111715610b0f57600080fd5b91908080601f016020809104026020016040519081016040528093929190818152602001838380828437600081840152601f19601f82011690508083019250505050505050919291929080359060200190640100000000811115610b7257600080fd5b820183602082011115610b8457600080fd5b80359060200191846001830284011164010000000083111715610ba657600080fd5b91908080601f016020809104026020016040519081016040528093929190818152602001838380828437600081840152601f19601f820116905080830192505050505050509192919290505050612c0d565b005b3373ffffffffffffffffffffffffffffffffffffffff16600260009054906101000a900473ffffffffffffffffffffffffffffffffffffffff1673ffffffffffffffffffffffffffffffffffffffff1614610cbd576040517f08c379a000000000000000000000000000000000000000000000000000000000815260040180806020018281038252600a8152602001807f6f6e6c792061646d696e0000000000000000000000000000000000000000000081525060200191505060405180910390fd5b610cc56131da565b6000808a815260200190815260200160002060405180606001604052908160008201548152602001600182018054600181600116156101000203166002900480601f016020809104026020016040519081016040528092919081815260200182805460018160011615610100020316600290048015610d855780601f10610d5a57610100808354040283529160200191610d85565b820191906000526020600020905b815481529060010190602001808311610d6857829003601f168201915b50505050508152602001600282018054600181600116156101000203166002900480601f016020809104026020016040519081016040528092919081815260200182805460018160011615610100020316600290048015610e275780601f10610dfc57610100808354040283529160200191610e27565b820191906000526020600020905b815481529060010190602001808311610e0a57829003601f168201915b5050505050815250509050600081600001511415610eba5788816000018181525050878160200181905250868160400181905250806000808b8152602001908152602001600020600082015181600001556020820151816001019080519060200190610e949291906131fb565b506040820151816002019080519060200190610eb19291906131fb565b50905050610f3b565b610ec8816040015188612fa4565b610f3a577f8a0c25e9f6a4c9f2b249b722215983b425fe15eba9614d6bdaa3555e2862c6016040518080602001828103825260108152602001807f496e76616c69642070617373776f72640000000000000000000000000000000081525060200191505060405180910390a1506115f8565b5b610f4361327b565b600160008881526020019081526020016000206040518060c001604052908160008201548152602001600182018054600181600116156101000203166002900480601f0160208091040260200160405190810160405280929190818152602001828054600181600116156101000203166002900480156110045780601f10610fd957610100808354040283529160200191611004565b820191906000526020600020905b815481529060010190602001808311610fe757829003601f168201915b50505050508152602001600282018054600181600116156101000203166002900480601f0160208091040260200160405190810160405280929190818152602001828054600181600116156101000203166002900480156110a65780601f1061107b576101008083540402835291602001916110a6565b820191906000526020600020905b81548152906001019060200180831161108957829003601f168201915b50505050508152602001600382018054600181600116156101000203166002900480601f0160208091040260200160405190810160405280929190818152602001828054600181600116156101000203166002900480156111485780601f1061111d57610100808354040283529160200191611148565b820191906000526020600020905b81548152906001019060200180831161112b57829003601f168201915b5050505050815260200160048201604051806080016040529081600082018054600181600116156101000203166002900480601f0160208091040260200160405190810160405280929190818152602001828054600181600116156101000203166002900480156111fa5780601f106111cf576101008083540402835291602001916111fa565b820191906000526020600020905b8154815290600101906020018083116111dd57829003601f168201915b5050505050815260200160018201548152602001600282018054600181600116156101000203166002900480601f0160208091040260200160405190810160405280929190818152602001828054600181600116156101000203166002900480156112a65780601f1061127b576101008083540402835291602001916112a6565b820191906000526020600020905b81548152906001019060200180831161128957829003601f168201915b5050505050815260200160038201548152505081526020016008820180548060200260200160405190810160405280929190818152602001828054801561130c57602002820191906000526020600020905b8154815260200190600101908083116112f8575b50505050508152505090506000816000015114611392577f8a0c25e9f6a4c9f2b249b722215983b425fe15eba9614d6bdaa3555e2862c60160405180806020018281038252601b8152602001807f50726f706572747920616c72656164792072656769737465726564000000000081525060200191505060405180910390a150506115f8565b86816000018181525050858160200181905250838160400181905250848160600181905250606061143e6114036113c88a612a95565b6040518060400160405280600181526020017f2e00000000000000000000000000000000000000000000000000000000000000815250613093565b6040518060400160405280600181526020017f3100000000000000000000000000000000000000000000000000000000000000815250613093565b905060405180608001604052808281526020018c81526020018581526020016000815250826080018190525081600160008a81526020019081526020016000206000820151816000015560208201518160010190805190602001906114a49291906131fb565b5060408201518160020190805190602001906114c19291906131fb565b5060608201518160030190805190602001906114de9291906131fb565b5060808201518160040160008201518160000190805190602001906115049291906131fb565b5060208201518160010155604082015181600201908051906020019061152b9291906131fb565b5060608201518160030155505060a08201518160080190805190602001906115549291906132b7565b509050507fd988eac642acdbd206b1666f75d0b96bd12fe04350efb384b234754fdd042dce816040518080602001828103825283818151815260200191508051906020019080838360005b838110156115ba57808201518184015260208101905061159f565b50505050905090810190601f1680156115e75780820380516001836020036101000a031916815260200191505b509250505060405180910390a15050505b5050505050505050565b600060608060606000606080600061161861327b565b600160008b81526020019081526020016000206040518060c001604052908160008201548152602001600182018054600181600116156101000203166002900480601f0160208091040260200160405190810160405280929190818152602001828054600181600116156101000203166002900480156116d95780601f106116ae576101008083540402835291602001916116d9565b820191906000526020600020905b8154815290600101906020018083116116bc57829003601f168201915b50505050508152602001600282018054600181600116156101000203166002900480601f01602080910402602001604051908101604052809291908181526020018280546001816001161561010002031660029004801561177b5780601f106117505761010080835404028352916020019161177b565b820191906000526020600020905b81548152906001019060200180831161175e57829003601f168201915b50505050508152602001600382018054600181600116156101000203166002900480601f01602080910402602001604051908101604052809291908181526020018280546001816001161561010002031660029004801561181d5780601f106117f25761010080835404028352916020019161181d565b820191906000526020600020905b81548152906001019060200180831161180057829003601f168201915b5050505050815260200160048201604051806080016040529081600082018054600181600116156101000203166002900480601f0160208091040260200160405190810160405280929190818152602001828054600181600116156101000203166002900480156118cf5780601f106118a4576101008083540402835291602001916118cf565b820191906000526020600020905b8154815290600101906020018083116118b257829003601f168201915b5050505050815260200160018201548152602001600282018054600181600116156101000203166002900480601f01602080910402602001604051908101604052809291908181526020018280546001816001161561010002031660029004801561197b5780601f106119505761010080835404028352916020019161197b565b820191906000526020600020905b81548152906001019060200180831161195e57829003601f168201915b505050505081526020016003820154815250508152602001600882018054806020026020016040519081016040528092919081815260200182805480156119e157602002820191906000526020600020905b8154815260200190600101908083116119cd575b5050505050815250509050600081600001511415611a75576000806000829250604051806020016040528060008152509190604051806020016040528060008152509190604051806020016040528060008152509190819150604051806020016040528060008152509060405180602001604052806000815250908090509850985098509850985098509850985050611b78565b806000015181602001518260400151836060015184608001516020015160008087608001516020015181526020019081526020016000206001018660800151604001518760a0015151869650859550849450828054600181600116156101000203166002900480601f016020809104026020016040519081016040528092919081815260200182805460018160011615610100020316600290048015611b5c5780601f10611b3157610100808354040283529160200191611b5c565b820191906000526020600020905b815481529060010190602001808311611b3f57829003601f168201915b5050505050925081915098509850985098509850985098509850505b919395975091939597565b60006060611b8f6131da565b600080600160008881526020019081526020016000206008018681548110611bb357fe5b9060005260206000200154815260200190815260200160002060405180606001604052908160008201548152602001600182018054600181600116156101000203166002900480601f016020809104026020016040519081016040528092919081815260200182805460018160011615610100020316600290048015611c7a5780601f10611c4f57610100808354040283529160200191611c7a565b820191906000526020600020905b815481529060010190602001808311611c5d57829003601f168201915b50505050508152602001600282018054600181600116156101000203166002900480601f016020809104026020016040519081016040528092919081815260200182805460018160011615610100020316600290048015611d1c5780601f10611cf157610100808354040283529160200191611d1c565b820191906000526020600020905b815481529060010190602001808311611cff57829003601f168201915b50505050508152505090508060000151816020015180905092509250509250929050565b3373ffffffffffffffffffffffffffffffffffffffff16600260009054906101000a900473ffffffffffffffffffffffffffffffffffffffff1673ffffffffffffffffffffffffffffffffffffffff1614611e03576040517f08c379a000000000000000000000000000000000000000000000000000000000815260040180806020018281038252600a8152602001807f6f6e6c792061646d696e0000000000000000000000000000000000000000000081525060200191505060405180910390fd5b611e0b61327b565b600160008a81526020019081526020016000206040518060c001604052908160008201548152602001600182018054600181600116156101000203166002900480601f016020809104026020016040519081016040528092919081815260200182805460018160011615610100020316600290048015611ecc5780601f10611ea157610100808354040283529160200191611ecc565b820191906000526020600020905b815481529060010190602001808311611eaf57829003601f168201915b50505050508152602001600282018054600181600116156101000203166002900480601f016020809104026020016040519081016040528092919081815260200182805460018160011615610100020316600290048015611f6e5780601f10611f4357610100808354040283529160200191611f6e565b820191906000526020600020905b815481529060010190602001808311611f5157829003601f168201915b50505050508152602001600382018054600181600116156101000203166002900480601f0160208091040260200160405190810160405280929190818152602001828054600181600116156101000203166002900480156120105780601f10611fe557610100808354040283529160200191612010565b820191906000526020600020905b815481529060010190602001808311611ff357829003601f168201915b5050505050815260200160048201604051806080016040529081600082018054600181600116156101000203166002900480601f0160208091040260200160405190810160405280929190818152602001828054600181600116156101000203166002900480156120c25780601f10612097576101008083540402835291602001916120c2565b820191906000526020600020905b8154815290600101906020018083116120a557829003601f168201915b5050505050815260200160018201548152602001600282018054600181600116156101000203166002900480601f01602080910402602001604051908101604052809291908181526020018280546001816001161561010002031660029004801561216e5780601f106121435761010080835404028352916020019161216e565b820191906000526020600020905b81548152906001019060200180831161215157829003601f168201915b505050505081526020016003820154815250508152602001600882018054806020026020016040519081016040528092919081815260200182805480156121d457602002820191906000526020600020905b8154815260200190600101908083116121c0575b505050505081525050905060008160000151141561225a577f8a0c25e9f6a4c9f2b249b722215983b425fe15eba9614d6bdaa3555e2862c6016040518080602001828103825260178152602001807f50726f706572747920646f6573206e6f7420657869737400000000000000000081525060200191505060405180910390a150612a8b565b6122626131da565b6000808a815260200190815260200160002060405180606001604052908160008201548152602001600182018054600181600116156101000203166002900480601f0160208091040260200160405190810160405280929190818152602001828054600181600116156101000203166002900480156123225780601f106122f757610100808354040283529160200191612322565b820191906000526020600020905b81548152906001019060200180831161230557829003601f168201915b50505050508152602001600282018054600181600116156101000203166002900480601f0160208091040260200160405190810160405280929190818152602001828054600181600116156101000203166002900480156123c45780601f10612399576101008083540402835291602001916123c4565b820191906000526020600020905b8154815290600101906020018083116123a757829003601f168201915b505050505081525050905088816000015114612449577f8a0c25e9f6a4c9f2b249b722215983b425fe15eba9614d6bdaa3555e2862c6016040518080602001828103825260158152602001807f53656c6c657220646f6573206e6f74206578697374000000000000000000000081525060200191505060405180910390a15050612a8b565b612457888260200151612fa4565b6124ca577f8a0c25e9f6a4c9f2b249b722215983b425fe15eba9614d6bdaa3555e2862c60160405180806020018281038252601a8152602001807f53656c6c6572206e616d6520646f6573206e6f74206d6174636800000000000081525060200191505060405180910390a15050612a8b565b6124d8816040015188612fa4565b61254b577f8a0c25e9f6a4c9f2b249b722215983b425fe15eba9614d6bdaa3555e2862c6016040518080602001828103825260108152602001807f496e76616c69642050617373776f72640000000000000000000000000000000081525060200191505060405180910390a15050612a8b565b612553613304565b82608001519050898160200151146125b8577f8a0c25e9f6a4c9f2b249b722215983b425fe15eba9614d6bdaa3555e2862c60160405180806020018281038252602c81526020018061337a602c913960400191505060405180910390a1505050612a8b565b6125c06131da565b60008089815260200190815260200160002060405180606001604052908160008201548152602001600182018054600181600116156101000203166002900480601f0160208091040260200160405190810160405280929190818152602001828054600181600116156101000203166002900480156126805780601f1061265557610100808354040283529160200191612680565b820191906000526020600020905b81548152906001019060200180831161266357829003601f168201915b50505050508152602001600282018054600181600116156101000203166002900480601f0160208091040260200160405190810160405280929190818152602001828054600181600116156101000203166002900480156127225780601f106126f757610100808354040283529160200191612722565b820191906000526020600020905b81548152906001019060200180831161270557829003601f168201915b50505050508152505090506000816000015114156127ab577f8a0c25e9f6a4c9f2b249b722215983b425fe15eba9614d6bdaa3555e2862c6016040518080602001828103825260148152602001807f427579657220646f6573206e6f7420657869737400000000000000000000000081525060200191505060405180910390a150505050612a8b565b6127b9878260200151612fa4565b61282e577f8a0c25e9f6a4c9f2b249b722215983b425fe15eba9614d6bdaa3555e2862c6016040518080602001828103825260198152602001807f4275796572206e616d6520646f6573206e6f74206d617463680000000000000081525060200191505060405180910390a150505050612a8b565b606061289061287a61283f8f612a95565b6040518060400160405280600181526020017f2e00000000000000000000000000000000000000000000000000000000000000815250613093565b61288b60028860a001515101612a95565b613093565b905060405180608001604052808281526020018a815260200187815260200188815250856080018190525084600160008f81526020019081526020016000206000820151816000015560208201518160010190805190602001906128f59291906131fb565b5060408201518160020190805190602001906129129291906131fb565b50606082015181600301908051906020019061292f9291906131fb565b5060808201518160040160008201518160000190805190602001906129559291906131fb565b5060208201518160010155604082015181600201908051906020019061297c9291906131fb565b5060608201518160030155505060a08201518160080190805190602001906129a59291906132b7565b50905050600160008e81526020019081526020016000206008018c90806001815401808255809150509060018203906000526020600020016000909192909190915055507f09642ba1c65e6f1c51ffacff7331aad81c899958969a2c75f1f4bfca121c9490816040518080602001828103825283818151815260200191508051906020019080838360005b83811015612a4b578082015181840152602081019050612a30565b50505050905090810190601f168015612a785780820380516001836020036101000a031916815260200191505b509250505060405180910390a150505050505b5050505050505050565b60606000606490506060816040519080825280601f01601f191660200182016040528015612ad25781602001600182028038833980820191505090505b50905060008090505b60008514612b57576000600a8681612aef57fe5b069050600a8681612afc57fe5b049550600a8181612b0957fe5b0660300160f81b838380600101945081518110612b2257fe5b60200101907effffffffffffffffffffffffffffffffffffffffffffffffffffffffffffff1916908160001a90535050612adb565b6060600182016040519080825280601f01601f191660200182016040528015612b8f5781602001600182028038833980820191505090505b50905060008090505b828111612c00578381840381518110612bad57fe5b602001015160f81c60f81b828281518110612bc457fe5b60200101907effffffffffffffffffffffffffffffffffffffffffffffffffffffffffffff1916908160001a9053508080600101915050612b98565b5080945050505050919050565b3373ffffffffffffffffffffffffffffffffffffffff16600260009054906101000a900473ffffffffffffffffffffffffffffffffffffffff1673ffffffffffffffffffffffffffffffffffffffff1614612cd0576040517f08c379a000000000000000000000000000000000000000000000000000000000815260040180806020018281038252600a8152602001807f6f6e6c792061646d696e0000000000000000000000000000000000000000000081525060200191505060405180910390fd5b612cd86131da565b60008085815260200190815260200160002060405180606001604052908160008201548152602001600182018054600181600116156101000203166002900480601f016020809104026020016040519081016040528092919081815260200182805460018160011615610100020316600290048015612d985780601f10612d6d57610100808354040283529160200191612d98565b820191906000526020600020905b815481529060010190602001808311612d7b57829003601f168201915b50505050508152602001600282018054600181600116156101000203166002900480601f016020809104026020016040519081016040528092919081815260200182805460018160011615610100020316600290048015612e3a5780601f10612e0f57610100808354040283529160200191612e3a565b820191906000526020600020905b815481529060010190602001808311612e1d57829003601f168201915b50505050508152505090506000816000015114612ebf577f8a0c25e9f6a4c9f2b249b722215983b425fe15eba9614d6bdaa3555e2862c6016040518080602001828103825260128152602001807f5573657220616c7265616479206578697374000000000000000000000000000081525060200191505060405180910390a150612f9f565b8381600001818152505082816020018190525081816040018190525080600080868152602001908152602001600020600082015181600001556020820151816001019080519060200190612f149291906131fb565b506040820151816002019080519060200190612f319291906131fb565b509050507f95a1f3a1dafdd4c1af344e3d7c69a72cbce8a3f15fe1cf95a7f5bd23df2e71a160405180806020018281038252601d8152602001807f5375636365737366756c6c79206372656174656420746865207573657200000081525060200191505060405180910390a1505b505050565b6000816040516020018082805190602001908083835b60208310612fdd5780518252602082019150602081019050602083039250612fba565b6001836020036101000a03801982511681845116808217855250505050505090500191505060405160208183030381529060405280519060200120836040516020018082805190602001908083835b6020831061304f578051825260208201915060208101905060208303925061302c565b6001836020036101000a0380198251168184511680821785525050505050509050019150506040516020818303038152906040528051906020012014905092915050565b6060808390506060839050606081518351016040519080825280601f01601f1916602001820160405280156130d75781602001600182028038833980820191505090505b5090506060819050600080905060008090505b8551811015613158578581815181106130ff57fe5b602001015160f81c60f81b83838060010194508151811061311c57fe5b60200101907effffffffffffffffffffffffffffffffffffffffffffffffffffffffffffff1916908160001a90535080806001019150506130ea565b600090505b84518110156131cb5784818151811061317257fe5b602001015160f81c60f81b83838060010194508151811061318f57fe5b60200101907effffffffffffffffffffffffffffffffffffffffffffffffffffffffffffff1916908160001a905350808060010191505061315d565b82965050505050505092915050565b60405180606001604052806000815260200160608152602001606081525090565b828054600181600116156101000203166002900490600052602060002090601f016020900481019282601f1061323c57805160ff191683800117855561326a565b8280016001018555821561326a579182015b8281111561326957825182559160200191906001019061324e565b5b509050613277919061332c565b5090565b6040518060c00160405280600081526020016060815260200160608152602001606081526020016132aa613351565b8152602001606081525090565b8280548282559060005260206000209081019282156132f3579160200282015b828111156132f25782518255916020019190600101906132d7565b5b509050613300919061332c565b5090565b6040518060800160405280606081526020016000815260200160608152602001600081525090565b61334e91905b8082111561334a576000816000905550600101613332565b5090565b90565b604051806080016040528060608152602001600081526020016060815260200160008152509056fe596f7520617265206e6f7420617574686f72697a656420746f2073656c6c20746869732070726f7065727479a265627a7a7231582040c9287c816588724a045cdca604bf678fdec8d26451686b471261b38489f43f64736f6c63430005100032",
  "source": "pragma solidity ^0.5.16;\n\ncontract PropertyRegistration {\n\n\tstruct User {\n\t\tuint ID;\n\t\tstring name;\n\t\tstring password;\n\t}\n\n\tstruct Owner {\n\t\tstring transactionID;\n\t\tuint userID;\n\t\tstring time;\n\t\tuint cost;\n\t}\n\n\tstruct Property {\n\t\tuint ID;\n\t\tstring pType;\n\t\tstring addres;\n\t\tstring dimensions;\n\t\tOwner currOwner;\n\t\tuint[] prevOwners;\n\t}\n\n\tmapping(uint => User) users;\n\n\tmapping(uint => Property) properties;\n\t\n\tevent successEvent (\n\t\tstring message\n\t);\n\n\tevent properyRegisteredEvent (\n\t\tstring transactionID\n\t);\n\n\tevent properyTransferredEvent (\n\t\tstring transactionID\n\t);\n\n\tevent invalidEvent (\n\t\tstring message\n\t);\n\t\n\taddress admin;\n\n\tconstructor() public {\n\t\tadmin=msg.sender;\n\t}\n\n\tmodifier onlyAdmin() {\n\t\trequire(admin==msg.sender, \"only admin\");\n\t\t_;\n\t}\n\n\tfunction registerUser(uint _userID, string memory _userName, string memory _userPassword) onlyAdmin public {\n\t\tUser memory _user = users[_userID];\n\t\tif(_user.ID != 0) {\n\t\t\temit invalidEvent(\"User already exist\");\n\t\t\treturn;\n\t\t}\n\t\t_user.ID = _userID;\n\t\t_user.name = _userName;\n\t\t_user.password = _userPassword;\n\t\tusers[_userID] = _user;\n\t\temit successEvent(\"Successfully created the user\");\n\t}\n\n\tfunction registerProperty(uint _ownerID, string memory _ownerName, string memory _ownerPassword, uint _propertyID, string memory _propertyType, string memory _propertyDimensions, string memory _propertyAddress, string memory _time) onlyAdmin public {\n\t\tUser memory _owner = users[_ownerID];\n\t\tif(_owner.ID == 0) {\n\t\t\t_owner.ID = _ownerID;\n\t\t\t_owner.name = _ownerName;\n\t\t\t_owner.password = _ownerPassword;\n\t\t\tusers[_ownerID] = _owner;\n\t\t} else {\n\t\t\tif(!equals(_owner.password, _ownerPassword)) {\n\t\t\t\temit invalidEvent(\"Invalid password\");\n\t\t\t\treturn;\n\t\t\t}\n\t\t}\n\n\t\tProperty memory _property = properties[_propertyID];\n\t\tif(_property.ID != 0) {\n\t\t\temit invalidEvent(\"Property already registered\");\n\t\t\treturn;\n\t\t}\n\t\t_property.ID = _propertyID;\n\t\t_property.pType = _propertyType;\n\t\t_property.addres = _propertyAddress;\n\t\t_property.dimensions = _propertyDimensions;\n\t\tstring memory _transactionID = strConcat(strConcat(uint2str(_propertyID), \".\"), \"1\");\n\t\t_property.currOwner = Owner(_transactionID, _ownerID, _time, 0);\n\t\tproperties[_propertyID] = _property;\n\t\t\n\n\t\temit properyRegisteredEvent(_transactionID);\n\t}\n\n\tfunction transferProperty(uint _propertyID, uint _sellerID, string memory _sellerName, string memory _sellerPassword, uint _buyerID, string memory _buyerName, uint _amount, string memory _time) onlyAdmin public {\n\t\tProperty memory _property = properties[_propertyID];\n\t\tif(_property.ID == 0) {\n\t\t\temit invalidEvent(\"Property does not exist\");\n\t\t\treturn;\n\t\t}\n\t\t\n\t\tUser memory _seller = users[_sellerID];\n\t\tif(_seller.ID != _sellerID) {\n\t\t\temit invalidEvent(\"Seller does not exist\");\n\t\t\treturn;\n\t\t}\n\n\t\tif(!equals(_sellerName, _seller.name)) {\n\t\t\temit invalidEvent(\"Seller name does not match\");\n\t\t\treturn;\n\t\t}\n\n\t\tif(!equals(_seller.password, _sellerPassword)) {\n\t\t\temit invalidEvent(\"Invalid Password\");\n\t\t\treturn;\n\t\t}\n\n\t\tOwner memory _owner = _property.currOwner;\n\t\tif(_owner.userID != _sellerID) {\n\t\t\temit invalidEvent(\"You are not authorized to sell this property\");\n\t\t\treturn;\n\t\t}\n\n\t\tUser memory _buyer = users[_buyerID];\n\t\tif(_buyer.ID == 0) {\n\t\t\temit invalidEvent(\"Buyer does not exist\");\n\t\t\treturn;\n\t\t}\n\t\tif(!equals(_buyerName, _buyer.name)) {\n\t\t\temit invalidEvent(\"Buyer name does not match\");\n\t\t\treturn;\n\t\t}\n\t\tstring memory _transactionID = strConcat(strConcat(uint2str(_propertyID), \".\"), uint2str(_property.prevOwners.length+2));\n\t\t_property.currOwner = Owner(_transactionID, _buyerID, _time, _amount);\n\t\tproperties[_propertyID] = _property;\n\t\tproperties[_propertyID].prevOwners.push(_sellerID);\n\t\t \n\t\t\n\t\temit properyTransferredEvent(_transactionID);\n\t}\n\n\tfunction getPropertyByID(uint _propertyID) public view returns (uint, string memory, string memory, string memory, uint, string memory, string memory, uint) {\n\t\tProperty memory _property = properties[_propertyID];\n\t\tif(_property.ID == 0) {\n\t\t\treturn (0, \"\", \"\", \"\", 0, \"\", \"\", 0);\n\t\t}\n\t\treturn (_property.ID, _property.pType, _property.addres, _property.dimensions, _property.currOwner.userID, users[_property.currOwner.userID].name, _property.currOwner.time, _property.prevOwners.length);\n\t}\n\n\tfunction getPrevOwner(uint _propertyID, uint _index) public view returns(uint, string memory) {\n\t\tUser memory _prevOwner = users[properties[_propertyID].prevOwners[_index]];\n\t\treturn (_prevOwner.ID, _prevOwner.name);\n\t}\n\n\tfunction uint2str(uint v) public pure returns (string memory str) {\n        uint maxlength = 100;\n        bytes memory reversed = new bytes(maxlength);\n        uint i = 0;\n        while (v != 0) {\n            uint remainder = v % 10;\n            v = v / 10;\n            reversed[i++] = byte(uint8(48 + remainder % 10)); \n        }\n        bytes memory s = new bytes(i + 1);\n        for (uint j = 0; j <= i; j++) {\n            s[j] = reversed[i - j];\n        }\n        str = string(s);\n    }\n\n\tfunction strConcat(string memory _a, string memory _b) internal pure returns (string memory){\n\t    bytes memory _ba = bytes(_a);\n\t    bytes memory _bb = bytes(_b);\n\t    string memory ab = new string(_ba.length + _bb.length);\n\t    bytes memory bab = bytes(ab);\n\t    uint k = 0;\n\t    uint i;\n\n\t    for (i = 0; i < _ba.length; i++) \n\t    \tbab[k++] = _ba[i];\n\n\t    for (i = 0; i < _bb.length; i++) \n\t    \tbab[k++] = _bb[i];\n\n\t    return string(bab);\n\t}\n\n\tfunction equals (string memory a, string memory b) internal pure returns (bool) {\n       return keccak256(abi.encodePacked(a)) == keccak256(abi.encodePacked(b));\n   }\n}\n",
  "sourcePath": "/home/mad/land-agreement/property-registration/contracts/PropertyRegistration.sol",
  "compiler": {
    "name": "solc",
    "version": "0.5.16+commit.9c3226ce.Emscripten.clang"
  },
  "schemaVersion": "3.4.1",
  "updatedAt": "2021-06-28T14:28:38.298Z",
  "networkType": "ethereum",
  "devdoc": {
    "methods": {}
  },
  "userdoc": {
    "methods": {}
  }
}